:100000000203EA0200063232323232020007323292
:0E00100032323202000832323232320206122E
:03002300020009CF
:03002B0002000AC6
:0300330002000EBA
:0D003B0002000FE5CE30E1FB8FCC7F0022EC
:03004B0002066347
:0300530002001098
:03005B000200118F
:0300630002001286
:03006B000200167A
:0300730002001771
:03007B0002001868
:030083000200195F
:10008B0002001AE517240BF8E6051722780830074B
:10009B0002780BE475F0011204DC0204842000EBFF
:1000AB007F2ED2008018EF540F2490D43440D4FF0D
:1000BB0030040BEF24BFB41A0050032461FFE51882
:1000CB0060021518051BE51B7002051A30070D7829
:1000DB0008E475F0011204DCEF0204CA02003E745E
:1000EB0003D2078003E4C207F5178B088A09890A34
:1000FB00E4F518F51AF51BE51860077F201200C907
:10010B0080F57519FFC201C200C202C203C205C24B
:10011B0006C208120097FF700D3007057F00120012
:10012B00DAAF1BAE1A22B4255FC2D5C204120097F8
:10013B00FF24D0B40A00501A75F00A781830D50590
:10014B0008B6FF0106C6A426F620D5047002D2031A
:10015B0080D924CFB41A00EF5004C2E5D2040202B6
:10016B00DAD20180C6D20080C0D20280BCD2D58048
:10017B00BAD20580B47F201200C92002077401B5E2
:10018B00180040F112008EFF1200C9020102D208C2
:10019B00D206809512008EFB12008EFA12008EF999
:1001AB004A4B700679AB7A037BFF20022EE5186071
:1001BB002A7E008E8275830012049D60060EEE650A
:1001CB001970F0C2D5EBC0E0EAC0E0E9C0E0EE1276
:1001DB000321D0E0F9D0E0FAD0E0FB120484FF60F9
:1001EB00AAEBC0E0EAC0E0E9C0E01200C9D0E0240D
:1001FB0001F9D0E03400FAD0E0FBE5190460DCD55E
:10020B0019D980877BFF7A03791DD202809C7910E4
:10021B0080027908C206C2088008D2D5790A800408
:10022B00790AC2D5E519047002F519E4FAFDFEFF4F
:10023B0012008EFC7B0820011312008EFD7B103008
:10024B00000A12008EFE12008EFF7B20EC3382D54B
:10025B0092D55013C3E43000069FFFE49EFEE420CA
:10026B0001039DFDE49CFCE4CBF8C201EC700CCFC8
:10027B00CECDCCE824F8F870F38017C3EF33FFEE44
:10028B0033FEED33FDEC33FCEB33FB994002FB0FFC
:10029B00D8E9EB300105F8D0E0C448B201C0E00A60
:1002AB00EC4D4E4F78207B0070C2EAB5190040BC74
:1002BB00C0E0120323D0F0D0E0200104C4C0E0C49E
:1002CB00B201C0F01200B2D0F0D5F0EB0201021275
:1002DB0004EC019F5302195801704C016C42021D32
:1002EB004F022544022549018543022B55020F4637
:1002FB00020F45020F4703CB5001742D01782E01DD
:10030B009B2B017C2301992003B42A013448000064
:10031B0001933F3F3F00790AA2D520031430050912
:10032B00B910020404B9080104A2D5200602500139
:10033B00042002689202B518005034C0E07F2030D0
:10034B0003197F30A20272067205500F12037AC294
:10035B0002C206C205C2087F30800F300503E9C018
:10036B00E01200C9300503D0E0F9D0E0B518CC306D
:10037B0005177F30B9100C1200C97F583004077F66
:10038B00788003B908031200C93002057F2D0200E3
:10039B00C97F202008F87F2B2006F322920280CF02
:1003AB00286E756C6C2900D20112008E3001F8C2D8
:1003BB0001781830D50108F60201342D5043495805
:1003CB0012008E2403B405004001E49003C693127F
:1003DB0000BA743A1200BAD20375180402021978E3
:1003EB00FFE4F6D8FD9000007F007E01E4F0A3DF70
:1003FB00FCDEFA75813102043F0206A7E493A3F8F1
:10040B00E493A34003F68001F208DFF48029E49320
:10041B00A3F85407240CC8C333C4540F4420C88317
:10042B004004F456800146F6DFE4800B0102040819
:10043B00102040809006DFE47E019360BCA3FF5444
:10044B003F30E509541FFEE493A360010ECF54C067
:10045B0025E060A840B8E493A3FAE493A3F8E493EF
:10046B00A3C8C582C8CAC583CAF0A3C8C582C8CAF7
:10047B00C583CADFE9DEE780BEBB010689828A83BA
:10048B00E0225002E722BBFE02E32289828A83E448
:10049B009322BB010CE58229F582E5833AF583E0D3
:1004AB00225006E92582F8E622BBFE06E92582F8F2
:1004BB00E222E58229F582E5833AF583E49322BBB8
:1004CB00010689828A83F0225002F722BBFE01F3D8
:1004DB0022FAE6FB0808E6F925F0F618E6CA3AF622
:1004EB0022D083D082F8E4937012740193700DA321
:1004FB00A393F8740193F5828883E4737402936871
:10050B0060EFA3A3A380DFE52D14B4090050769010
:10051B00052875F003A4C58325F0C5837302054335
:10052B0002054A02055102056302056D02057402BC
:10053B000581020581020588852EC3752D02228552
:10054B002FC3752D0322E530600743C502752D04BB
:10055B002275C330752D0822E52E4401F5C3752D88
:10056B00052243C508752D062285C33143C520439B
:10057B00C510752D072243C504752D0922E4F52CF2
:10058B00F52DF5302212076F752C02E4F52D22059F
:10059B0029AF29EFC39402406DE4F529D209052A4E
:1005AB00AF2AEF94024005E4F52AD20A0522AF22C6
:1005BB00EFC394054050E4F522D20B0527AF27EF8C
:1005CB00940A4042E4F527D20E0528AF28EF940594
:1005DB004034E4F528D20F0523AF23EF94144005E4
:1005EB00E4F523D20C0524AF24EFC3941E4017E48B
:1005FB00F524D20DE525D3940040021525E526D32D
:10060B0094004002152622C0E0C0F0C083C082C017
:10061B00D075D000C000C001C002C003C004C0052B
:10062B00C006C007E5F530E3147430258BF58B74E9
:10063B00F8258CF58C0053F5F70012059AD007D0EE
:10064B0006D005D004D003D002D001D000D0D0D03A
:10065B0082D083D0F0D0E032C0E0C0F0C083C08243
:10066B00C0D075D000C000C001C002C003C004C020
:10067B0005C006C007E5F630E10753F6FD0012058D
:10068B0012D007D006D005D004D003D002D001D0B1
:10069B0000D0D0D082D083D0F0D0E032758F7012E2
:1006AB00072F1206FE120717300B0BC20B7B307D88
:1006BB00137F0212075B300EEFC20E7D137F021207
:1006CB0007467BFF7A07797FAF31750B008F0C12D2
:1006DB0000F080D4012C00042D0000000001290043
:1006EB00012200012A00012700012800012300013B
:1006FB00240000E4F5CA439B2075CF6753CEA74374
:10070B00CB9053CBBF43CE2043F18022758D3075F8
:10071B008B30758CF80053F5F70043F20843F180EA
:10072B00438D0122E4F5C25399EF5399DF12076F02
:10073B0053F6FD0043F30243F18022E52C70107554
:10074B002C01752D018F2E8D2F75300143C5012284
:10075B00E52C700F752C01752D018F2E8D2F8B2B8A
:10076B0043C50122D285D28475C624E4F5C775C46E
:10077B0020F5C5224949435F5278446174613D308D
:08078B0078253032780D0A00D8
:00000001FF
